:020000020000FC
:1000000000C0F89408E00EBF0FE50DBF0FEF07BB6F
:1000100004BB00E008BB05BB10E811BB10E412BB39
:100020000E942000869B02C09798EBCF979A00C051
:100030000E9420000E943400F0E0E4ECF3CFFFCFF8
:1000400001E00E943C0006E00E943C0008E30E94A0
:100050003C0008E30E943C000CE00E943C000E942F
:100060003400F0E0E2EB089500240015059119F04A
:100070000E944500F9CF0895C398C298C19805BB66
:10008000C39A0E944E00C3980895C398C29AC1981B
:1000900005BBC39A0E944E00C39808950F931F9307
:1000A0000FEF1FE31A95F1F70A95D9F70F911F91FA
:1000B000089546616E204465736C696761646121CF
:1000C0002121210046616E204C6967616461212114
:0400D00021212000CA
:00000001FF
